:0400000036EF3EF0A9
:107C6C00000140EF3EF0E8CF01F0ACA2FED701C01E
:107C7C00ADFF1200070E0B6ED00E0A6E076E000ED3
:107C8C000F6E0750076E000E106E0750076E000E39
:107C9C00086E0750076E000E096E0750076E000E37
:107CAC000C6E0750700ED36E520E9B6E0F0EC16E83
:107CBC00000E926E9368800E946E300E896E000EDC
:107CCC008A6E330E8B6EAC84010EAF6EAC98AB8E9D
:107CDC00AC8AAC9CAB9C9D9A9D98AB88000E0E6EAA
:107CEC00000E0D6EFF0E0D5C7F0E0E58D8B003D03B
:107CFC000D4A0E2AF7D7000E0E6E000E0D6EFF0EFB
:107D0C000D5C7F0E0E58D8B003D00D4A0E2AF7D753
:107D1C008B680A06D8A00B060B500A10D8B460D199
:107D2C009EAAF7D7ABB404D0ABA205D0AB98AB8866
:107D3C003F0EAE6E5AD1AECF10F00F6647D0102862
:107D4C00D8A407D04C0E39EC3EF0540E39EC3EF072
:107D5C004CD11050FE0AD8A423D08B94000E0E6E7A
:107D6C00000E0D6EE80E0D5C030E0E58D8B003D04D
:107D7C000D4A0E2AF7D78B84000E0E6E000E0D6E78
:107D8C00880E0D5C130E0E58D8B003D00D4A0E2A77
:107D9C00F7D74F0E39EC3EF04B0E39EC3EF025D1B7
:107DAC001050800AD8B421D110C007F0F00E07167D
:107DBC00D8A41BD11050030B0C6E0C6602D08B9008
:107DCC00F5D00C04D8A4F2D08B92F0D00F04D8A428
:107DDC004DD0F00E891610500F0B891210AE03D037
:107DEC00076E020E00D110AC03D0076E050EFBD04F
:107DFC0010AA03D0076E060EF6D010A834D09368E4
:107E0C00899A899A899A899A899A899A899A899A4E
:107E1C00899A899A899A899A899A899A899A899A3E
:107E2C00899A899A899A899A899A899A899A899A2E
:107E3C00899A899A899A899A899A899A899A899A1E
:107E4C00899A899A899A899A899A899A899A899A0E
:107E5C00899A899A81CF10F0898A105039EC3EF0BA
:107E6C00030E8B12BED0076E030EBDD00F50020A4C
:107E7C00D8A403D0000E936E1BD00F50030AD8A4C5
:107E8C0012D0000E936E10C08AFF89988998899839
:107E9C0089988998899889988998899889988998CE
:107EAC00899889987FD00F50040AD8A416D089805D
:107EBC0010C08AFF89988998899889988998899897
:107ECC0089988998899889988998899889988988AE
:107EDC008988898889889368C3D70F50050AD8A4E4
:107EEC0038D010C08AFF8998899889988998899880
:107EFC00899889988998899889988998899889986E
:107F0C0089888988898889888988898889888988DD
:107F1C0089888988898889888988898893688980EB
:107F2C00899A899A899A899A899A899A899A899A2D
:107F3C00899A899A899A899A899A899A899A899A1D
:107F4C00899A899A8ACF10F0898A105039EC3EF0C0
:107F5C0087D70F50060AD8A417D0000E936E10C006
:107F6C008AFF10C08AFF10C08AFF10C08AFF899850
:107F7C0089988998899889988998899889988998ED
:107F8C0089988998899812D00F50070AD8B40ED0C6
:107F9C000F50080AD8A40CD08988898889888988C8
:107FAC008988898889888988898889880F2A1DD039
:107FBC000F50090AD8A419D0030E8B12030E8B1282
:107FCC00030E8B12030E8B12030E8B12030E8B12ED
:107FDC00030E8B12030E8B12030E8B12030E8B12DD
:107FEC009368076E000E0F6E07504E0E0B6E200E30
:047FFC000A6E8FD6A4
:020000040020DA
:08000000FFFFFFFFFFFFFFFF00
:020000040030CA
:0E000000020E1F1EFF0381FF0FC00FE00F4016
:00000001FF
